{
  "_format": "hh-sol-artifact-1",
  "contractName": "BuyMeACoffee",
  "sourceName": "contracts/BuyMeACoffee.sol",
  "abi": [
    {
      "inputs": [],
      "stateMutability": "nonpayable",
      "type": "constructor"
    },
    {
      "anonymous": false,
      "inputs": [
        {
          "indexed": true,
          "internalType": "address",
          "name": "from",
          "type": "address"
        },
        {
          "indexed": false,
          "internalType": "uint256",
          "name": "timestamp",
          "type": "uint256"
        },
        {
          "indexed": false,
          "internalType": "string",
          "name": "name",
          "type": "string"
        },
        {
          "indexed": false,
          "internalType": "string",
          "name": "message",
          "type": "string"
        },
        {
          "indexed": false,
          "internalType": "uint256",
          "name": "amount",
          "type": "uint256"
        }
      ],
      "name": "NewMemo",
      "type": "event"
    },
    {
      "inputs": [
        {
          "internalType": "string",
          "name": "_name",
          "type": "string"
        },
        {
          "internalType": "string",
          "name": "_message",
          "type": "string"
        }
      ],
      "name": "buyCoffee",
      "outputs": [],
      "stateMutability": "payable",
      "type": "function"
    },
    {
      "inputs": [],
      "name": "getMemos",
      "outputs": [
        {
          "components": [
            {
              "internalType": "address",
              "name": "from",
              "type": "address"
            },
            {
              "internalType": "uint256",
              "name": "timestamp",
              "type": "uint256"
            },
            {
              "internalType": "string",
              "name": "name",
              "type": "string"
            },
            {
              "internalType": "string",
              "name": "message",
              "type": "string"
            },
            {
              "internalType": "uint256",
              "name": "amount",
              "type": "uint256"
            }
          ],
          "internalType": "struct BuyMeACoffee.Memo[]",
          "name": "",
          "type": "tuple[]"
        }
      ],
      "stateMutability": "view",
      "type": "function"
    },
    {
      "inputs": [
        {
          "internalType": "address",
          "name": "_withdrawalAddress",
          "type": "address"
        }
      ],
      "name": "setWithdrawalAddress",
      "outputs": [],
      "stateMutability": "nonpayable",
      "type": "function"
    },
    {
      "inputs": [],
      "name": "withdrawTips",
      "outputs": [],
      "stateMutability": "nonpayable",
      "type": "function"
    }
  ],
  "bytecode": "0x608060405234801561001057600080fd5b50336000806101000a81548173ffffffffffffffffffffffffffffffffffffffff021916908373ffffffffffffffffffffffffffffffffffffffff16021790555033600160006101000a81548173ffffffffffffffffffffffffffffffffffffffff021916908373ffffffffffffffffffffffffffffffffffffffff160217905550610d88806100a16000396000f3fe60806040526004361061003f5760003560e01c8063204206e11461004457806321b8092e146100605780633aaa74b214610089578063865c5172146100a0575b600080fd5b61005e6004803603810190610059919061073f565b6100cb565b005b34801561006c57600080fd5b5061008760048036038101906100829190610716565b610265565b005b34801561009557600080fd5b5061009e6103a7565b005b3480156100ac57600080fd5b506100b5610409565b6040516100c291906109b9565b60405180910390f35b6000341161010e576040517f08c379a0000000000000000000000000000000000000000000000000000000008152600401610105906109fb565b60405180910390fd5b60026040518060a001604052803373ffffffffffffffffffffffffffffffffffffffff16815260200142815260200184815260200183815260200134815250908060018154018082558091505060019003906000526020600020906005020160009091909190915060008201518160000160006101000a81548173ffffffffffffffffffffffffffffffffffffffff021916908373ffffffffffffffffffffffffffffffffffffffff1602179055506020820151816001015560408201518160020190805190602001906101e39291906105f6565b5060608201518160030190805190602001906102009291906105f6565b506080820151816004015550503373ffffffffffffffffffffffffffffffffffffffff167fe6609e3b36bf3d0e12aa4c5b518055c81016d4f091e4fa2be01ff5f2690512bb428484346040516102599493929190610a3b565b60405180910390a25050565b60008054906101000a900473ffffffffffffffffffffffffffffffffffffffff1673ffffffffffffffffffffffffffffffffffffffff163373ffffffffffffffffffffffffffffffffffffffff16146102f3576040517f08c379a00000000000000000000000000000000000000000000000000000000081526004016102ea906109db565b60405180910390fd5b600073ffffffffffffffffffffffffffffffffffffffff168173ffffffffffffffffffffffffffffffffffffffff161415610363576040517f08c379a000000000000000000000000000000000000000000000000000000000815260040161035a90610a1b565b60405180910390fd5b80600160006101000a81548173ffffffffffffffffffffffffffffffffffffffff021916908373ffffffffffffffffffffffffffffffffffffffff16021790555050565b600160009054906101000a900473ffffffffffffffffffffffffffffffffffffffff1673ffffffffffffffffffffffffffffffffffffffff166108fc479081150290604051600060405180830381858888f1935050505061040757600080fd5b565b60606002805480602002602001604051908101604052809291908181526020016000905b828210156105ed57838290600052602060002090600502016040518060a00160405290816000820160009054906101000a900473ffffffffffffffffffffffffffffffffffffffff1673ffffffffffffffffffffffffffffffffffffffff1673ffffffffffffffffffffffffffffffffffffffff168152602001600182015481526020016002820180546104c090610bc8565b80601f01602080910402602001604051908101604052809291908181526020018280546104ec90610bc8565b80156105395780601f1061050e57610100808354040283529160200191610539565b820191906000526020600020905b81548152906001019060200180831161051c57829003601f168201915b5050505050815260200160038201805461055290610bc8565b80601f016020809104026020016040519081016040528092919081815260200182805461057e90610bc8565b80156105cb5780601f106105a0576101008083540402835291602001916105cb565b820191906000526020600020905b8154815290600101906020018083116105ae57829003601f168201915b505050505081526020016004820154815250508152602001906001019061042d565b50505050905090565b82805461060290610bc8565b90600052602060002090601f016020900481019282610624576000855561066b565b82601f1061063d57805160ff191683800117855561066b565b8280016001018555821561066b579182015b8281111561066a57825182559160200191906001019061064f565b5b509050610678919061067c565b5090565b5b8082111561069557600081600090555060010161067d565b5090565b60006106ac6106a784610ab3565b610a8e565b9050828152602081018484840111156106c457600080fd5b6106cf848285610b86565b509392505050565b6000813590506106e681610d3b565b92915050565b600082601f8301126106fd57600080fd5b813561070d848260208601610699565b91505092915050565b60006020828403121561072857600080fd5b6000610736848285016106d7565b91505092915050565b6000806040838503121561075257600080fd5b600083013567ffffffffffffffff81111561076c57600080fd5b610778858286016106ec565b925050602083013567ffffffffffffffff81111561079557600080fd5b6107a1858286016106ec565b9150509250929050565b60006107b7838361091e565b905092915050565b6107c881610b4a565b82525050565b60006107d982610af4565b6107e38185610b17565b9350836020820285016107f585610ae4565b8060005b85811015610831578484038952815161081285826107ab565b945061081d83610b0a565b925060208a019950506001810190506107f9565b50829750879550505050505092915050565b600061084e82610aff565b6108588185610b28565b9350610868818560208601610b95565b61087181610c89565b840191505092915050565b600061088782610aff565b6108918185610b39565b93506108a1818560208601610b95565b6108aa81610c89565b840191505092915050565b60006108c2602583610b39565b91506108cd82610c9a565b604082019050919050565b60006108e5601a83610b39565b91506108f082610ce9565b602082019050919050565b6000610908601a83610b39565b915061091382610d12565b602082019050919050565b600060a08301600083015161093660008601826107bf565b506020830151610949602086018261099b565b50604083015184820360408601526109618282610843565b9150506060830151848203606086015261097b8282610843565b9150506080830151610990608086018261099b565b508091505092915050565b6109a481610b7c565b82525050565b6109b381610b7c565b82525050565b600060208201905081810360008301526109d381846107ce565b905092915050565b600060208201905081810360008301526109f4816108b5565b9050919050565b60006020820190508181036000830152610a14816108d8565b9050919050565b60006020820190508181036000830152610a34816108fb565b9050919050565b6000608082019050610a5060008301876109aa565b8181036020830152610a62818661087c565b90508181036040830152610a76818561087c565b9050610a8560608301846109aa565b95945050505050565b6000610a98610aa9565b9050610aa48282610bfa565b919050565b6000604051905090565b600067ffffffffffffffff821115610ace57610acd610c5a565b5b610ad782610c89565b9050602081019050919050565b6000819050602082019050919050565b600081519050919050565b600081519050919050565b6000602082019050919050565b600082825260208201905092915050565b600082825260208201905092915050565b600082825260208201905092915050565b6000610b5582610b5c565b9050919050565b600073ffffffffffffffffffffffffffffffffffffffff82169050919050565b6000819050919050565b82818337600083830152505050565b60005b83811015610bb3578082015181840152602081019050610b98565b83811115610bc2576000848401525b50505050565b60006002820490506001821680610be057607f821691505b60208210811415610bf457610bf3610c2b565b5b50919050565b610c0382610c89565b810181811067ffffffffffffffff82111715610c2257610c21610c5a565b5b80604052505050565b7f4e487b7100000000000000000000000000000000000000000000000000000000600052602260045260246000fd5b7f4e487b7100000000000000000000000000000000000000000000000000000000600052604160045260246000fd5b6000601f19601f8301169050919050565b7f4f6e6c7920746865206f776e65722063616e2063616c6c20746869732066756e60008201527f6374696f6e000000000000000000000000000000000000000000000000000000602082015250565b7f63616e27742062757920636f6666656520666f72206672656521000000000000600082015250565b7f496e76616c6964207769746864726177616c2061646472657373000000000000600082015250565b610d4481610b4a565b8114610d4f57600080fd5b5056fea2646970667358221220e0756df1bc1d02ff35c51cf4342a7d5190d58ef2d2498924512ac9feb6ef1d1f64736f6c63430008040033",
  "linkReferences": {},
  "deployedLinkReferences": {}
}